:020000040000FA
:100000000C945D000C9485000C9485000C94850084
:100010000C9485000C9485000C9485000C9485004C
:100020000C9485000C9485000C9485000C9485003C
:100030000C9485000C9485000C9485000C9485002C
:100040000C94C1020C9485000C948F020C946902EC
:100050000C9485000C9485000C9485000C9485000C
:100060000C9485000C9485000000000024002700FB
:100070002A0000000000250028002B0004040404CE
:100080000404040402020202020203030303030342
:10009000010204081020408001020408102001021F
:1000A00004081020000000080002010000030407FB
:1000B0000000000000000000830411241FBECFEFE9
:1000C000D8E0DEBFCDBF21E0AAE1B1E001C01D92C2
:1000D000A43CB207E1F711E0A0E0B1E0ECEEFDE0F6
:1000E00002C005900D92AA31B107D9F710E0CDE515
:1000F000D0E004C02197FE010E94F304CC35D10763
:10010000C9F70E940B030C94F4060C940000EDEA6E
:10011000F0E02491E9E9F0E09491E5E8F0E0E49181
:10012000EE23C9F0222339F0233001F1A8F4213065
:1001300019F1223029F1F0E0EE0FFF1FEE58FF4FCA
:10014000A591B4912FB7F894EC91811126C09095A8
:100150009E239C932FBF08952730A9F02830C9F023
:10016000243049F7209180002F7D03C0209180002A
:100170002F7720938000DFCF24B52F7724BDDBCFEE
:1001800024B52F7DFBCF2091B0002F772093B000B6
:10019000D2CF2091B0002F7DF9CF9E2BDACFAF9236
:1001A000BF92CF92DF92EF92FF920F931F93CF9364
:1001B000DF936C017B018B01040F151FEB015E01C6
:1001C000AE18BF08C017D10759F06991D601ED915B
:1001D000FC910190F081E02DC6010995892B79F7FA
:1001E000C501DF91CF911F910F91FF90EF90DF90AC
:1001F000CF90BF90AF900895FC01538D448D252F73
:1002000030E0842F90E0821B930B541710F0CF96B0
:10021000089501970895FC01918D828D981761F0E2
:10022000A28DAE0FBF2FB11D5D968C91928D9F5FF9
:100230009F73928F90E008958FEF9FEF08952FB7EF
:10024000F89480911F0190912001A0912101B0911B
:1002500022012FBF80932B0190932C01A0932D019D
:10026000B0932E0183E291E00E940B0197FF26C01C
:100270002FB7F89480911F0190912001A091210146
:10028000B09122012FBF40912B0150912C01609120
:100290002D0170912E01841B950BA60BB70B40917D
:1002A0002701509128016091290170912A0184173A
:1002B0009507A607B707B0F28FEF9FEF0895FC01EF
:1002C000918D828D981731F0828DE80FF11D858D0B
:1002D00090E008958FEF9FEF0895FC01918D228D9E
:1002E000892F90E0805C9F4F821B91098F73992723
:1002F000089583E291E00E946D0121E0892B09F4C9
:1003000020E0822F089580E090E0892B29F00E9460
:10031000790181110C9400000895FC01A48DA80FAF
:10032000B92FB11DA35ABF4F2C91848D90E0019637
:100330008F739927848FA689B7892C93A089B18957
:100340008C91837080648C93938D848D981306C0F8
:100350000288F389E02D80818F7D80830895EF925C
:10036000FF920F931F93CF93DF93EC0181E0888F6F
:100370009B8D8C8D98131AC0E889F989808185FF3F
:1003800015C09FB7F894EE89FF896083E889F989E1
:1003900080818370806480839FBF81E090E0DF91E3
:1003A000CF911F910F91FF90EF900895F62E0B8D36
:1003B00010E00F5F1F4F0F731127E02E8C8D8E11F1
:1003C0000CC00FB607FCFACFE889F989808185FF58
:1003D000F5CFCE010E948D01F1CFEB8DEC0FFD2FFB
:1003E000F11DE35AFF4FF0829FB7F8940B8FEA8913
:1003F000FB8980818062CFCFCF93DF93EC01888D22
:100400008823B9F0AA89BB89E889F9898C9185FD8F
:1004100003C0808186FD0DC00FB607FCF7CF8C911D
:1004200085FFF2CF808185FFEDCFCE010E948D0147
:10043000E9CFDF91CF9108953FB7F89480911B01E8
:1004400090911C01A0911D01B0911E0126B5A89BA1
:1004500005C02F3F19F00196A11DB11D3FBFBA2F56
:10046000A92F982F8827BC01CD01620F711D811D16
:10047000911D42E0660F771F881F991F4A95D1F79B
:1004800008950F931F93CF93DF93EC018881998197
:10049000009759F02A813B812617370730F081E019
:1004A000DF91CF911F910F9108958B016F5F7F4F67
:1004B0000E941E06009759F0998388831B830A8344
:1004C0002C813D81232B59F7FC011082E8CF80E07D
:1004D000E7CF1F920F920FB60F9211242F933F93E5
:1004E0004F935F936F937F938F939F93AF93BF933C
:1004F000EF93FF9383E291E00E948D01FF91EF91D2
:10050000BF91AF919F918F917F916F915F914F912B
:100510003F912F910F900FBE0F901F9018951F9233
:100520000F920FB60F9211242F938F939F93EF93F7
:10053000FF93E0913301F09134018081E091390122
:10054000F0913A0182FD1BC0908180913C018F5F48
:100550008F7320913D01821741F0E0913C01F0E062
:10056000ED5DFE4F958F80933C01FF91EF919F9140
:100570008F912F910F900FBE0F901F901895808133
:10058000F4CF1F920F920FB60F9211242F933F9327
:100590008F939F93AF93BF9380911F019091200100
:1005A000A0912101B091220130911A0123E0230F83
:1005B0002D3758F50196A11DB11D20931A01809386
:1005C0001F0190932001A0932101B09322018091FB
:1005D0001B0190911C01A0911D01B0911E0101967B
:1005E000A11DB11D80931B0190931C01A0931D01BF
:1005F000B0931E01BF91AF919F918F913F912F9129
:100600000F900FBE0F901F90189526E8230F0296AB
:10061000A11DB11DD2CFCF93DF93CDB7DEB7289701
:100620000FB6F894DEBF0FBECDBF789484B582605C
:1006300084BD84B5816084BD85B5826085BD85B586
:10064000816085BD80916E00816080936E00109204
:10065000810080918100826080938100809181007F
:100660008160809381008091800081608093800010
:100670008091B10084608093B1008091B00081606E
:100680008093B00080917A00846080937A0080919A
:100690007A00826080937A0080917A0081608093F2
:1006A0007A0080917A00806880937A001092C1006D
:1006B000E0913301F091340182E08083E0912F01D9
:1006C000F09130011082E0913101F09132018FEC14
:1006D000808310923B01E0913701F091380186E070
:1006E0008083E0913501F0913601808180618083C3
:1006F000E0913501F0913601808188608083E0913E
:100700003501F0913601808180688083E091350168
:10071000F091360180818F7D8083E9E9F0E02491BA
:10072000E5E8F0E08491882399F090E0880F991F24
:10073000FC01E859FF4FA591B491FC01EE58FF4F21
:10074000859194918FB7F894EC91E22BEC938FBF45
:1007500090E0A92E90E0B92E83E291E00E946D0115
:10076000892B09F48DC01A8219821C821B821E8279
:100770001D8270E060E0CE0101960E944102298155
:100780003A8181112EC02115310519F0C9010E944D
:1007900095051A8219821E821D821C821B820E946C
:1007A0001F010D811E8197FD24C08A30910509F13A
:1007B0008F8318860F5F1F4FB801CE0101960E94EC
:1007C0004102882361F329813A818D819E81BE0196
:1007D000695F7F4F820F931F0E94ED061E830D837A
:1007E000DECF1E821D8269E171E0C9010E94ED0623
:1007F000D6CFC980DA80C114D10429F07601011561
:10080000110509F04AC08D819E81892B99F168E11B
:1008100071E089819A810E94E406892B59F581E073
:100820000E9487000E941C022B013C0188EEC82E0A
:1008300083E0D82EE12CF12C0E941C02641975096A
:1008400086099709683E734081059105A8F3F1E098
:10085000CF1AD108E108F10828EE420E23E0521E1B
:10086000611C711CC114D104E104F10429F780E07A
:100870000E94870089819A81009711F00E94950556
:10088000A114B10409F468CF0E947901882309F406
:1008900063CF0E94000060CF730137012FEF621A0F
:1008A000720AF7018081082E000C990B0E94B00497
:1008B000892B91F7015011090C0D1D1DF801808144
:1008C000082E000C990B0E94B004892B31F00E15F4
:1008D0001F0518F001501109F1CFA8014F5F5F4FBC
:1008E0004E195F095E834D83CE14DF0420F4B701F7
:1008F000C6010E94DB06E981FA818D819E81E80FA5
:10090000F91F108280CFE3E2F1E01382128288EEB9
:1009100093E0A0E0B0E084839583A683B7838AE068
:1009200091E09183808385EC90E09587848784ECC7
:1009300090E09787868780EC90E0918B808B81ECAC
:1009400090E0938B828B82EC90E0958B848B86EC8D
:1009500090E0978B868B118E128E138E148E0895D5
:1009600091110C94B904803219F089508550C8F760
:1009700008959927882708952F923F924F925F926A
:100980006F927F928F929F92AF92BF92CF92DF929F
:10099000EF92FF920F931F93CF93DF93CDB7DEB704
:1009A000CA1BDB0B0FB6F894DEBF0FBECDBF099498
:1009B0002A88398848885F846E847D848C849B84EF
:1009C000AA84B984C884DF80EE80FD800C811B81FD
:1009D000AA81B981CE0FD11D0FB6F894DEBF0FBE2C
:1009E000CDBFED010895EE0FFF1F0590F491E02DAE
:1009F00009940F931F93CF93DF938230910510F4E6
:100A000082E090E0E091C201F091C30130E020E08B
:100A1000B0E0A0E0309799F42115310509F44AC0FF
:100A2000281B390B24303105D8F58A819B8161154B
:100A3000710589F1FB0193838283FE0111C040811E
:100A400051810281138148175907E0F0481759076F
:100A500099F4109761F012960C93129713961C93C9
:100A60003296CF01DF91CF911F910F91089500939E
:100A7000C2011093C301F4CF2115310551F0421783
:100A8000530738F0A901DB019A01BD01DF01F8012C
:100A9000C1CFEF01F9CF9093C3018093C201CDCFB5
:100AA000FE01E20FF31F81939193225031093983A4
:100AB0002883D7CF2091C0013091C101232B41F46D
:100AC00020910201309103013093C1012093C001B4
:100AD00020910001309101012115310541F42DB71C
:100AE0003EB74091040150910501241B350BE09164
:100AF000C001F091C101E217F307A0F42E1B3F0BD8
:100B00002817390778F0AC014E5F5F4F241735077F
:100B100048F04E0F5F1F5093C1014093C001819375
:100B200091939FCFF0E0E0E09CCFCF93DF930097CD
:100B3000E9F0FC01329713821282A091C201B091B8
:100B4000C301ED0130E020E01097A1F42081318154
:100B5000820F931F2091C0013091C10128173907DE
:100B600009F061C0F093C101E093C001DF91CF9122
:100B70000895EA01CE17DF07E8F54A815B819E01FF
:100B800041155105B1F7E901FB83EA834991599178
:100B9000C40FD51FEC17FD0761F480819181029687
:100BA000840F951FE90199838883828193819B83B8
:100BB0008A83F0E0E0E012968D919C911397009764
:100BC000B9F52D913C911197CD010296820F931F9B
:100BD0002091C0013091C1012817390739F63097AB
:100BE00051F51092C3011092C201B093C101A093BC
:100BF000C001BCCFD383C28340815181840F951F34
:100C0000C817D90761F44E5F5F4F88819981480FFB
:100C1000591F518340838A819B819383828321154D
:100C2000310509F0B0CFF093C301E093C2019ECF2C
:100C3000FD01DC01C0CF13821282D7CFB0E0A0E06B
:100C4000E4E2F6E00C94BE048C01009751F4CB0171
:100C50000E94F9048C01C801CDB7DEB7E0E10C9425
:100C6000DA04FC01E60FF71F9C0122503109E2175C
:100C7000F30708F49DC0D901CD91DC911197C617F7
:100C8000D70798F0C530D10530F3CE010497861709
:100C9000970708F3C61BD70B2297C193D1936D9387
:100CA0007C93CF010E949505D6CF5B01AC1ABD0A9B
:100CB0004C018C0E9D1EA091C201B091C301512C1C
:100CC000412CF12CE12C109731F58091C0019091CD
:100CD000C1018815990509F05CC04616570608F051
:100CE00058C08091000190910101009741F48DB7A7
:100CF0009EB74091040150910501841B950BE817A4
:100D0000F90708F055C0F093C101E093C001F90163
:100D100071836083A0CF8D919C91119712966C90F6
:100D2000129713967C901397A815B90559F56C0185
:100D300042E0C40ED11CCA14DB0420F1AC014A19F4
:100D40005B09DA011296159780F0628273825183F3
:100D50004083D9016D937C93E114F10471F0D701C4
:100D60001396FC93EE93129776CF22968C0F9D1FCD
:100D7000F90191838083F301EFCFF093C301E093F6
:100D8000C20169CF4816590608F42C017D01D30130
:100D90009ACFCB010E94F9047C01009749F0AE0183
:100DA000B8010E94DB06C8010E949505870153CF58
:100DB00010E000E050CFFB01DC0102C001900D9279
:100DC00041505040D8F70895FB01DC018D9101900E
:100DD00080190110D9F3990B0895FB01DC010190F2
:100DE0000D920020E1F70895F894FFCF0000C401B0
:100DF000800000000000AF01CF00FC00FC016D018D
:060E00000B015F0131004F
:107E0000112484B714BE81FFF0D085E080938100F7
:107E100082E08093C00088E18093C10086E0809377
:107E2000C20080E18093C4008EE0C9D0259A86E02C
:107E300020E33CEF91E0309385002093840096BBD3
:107E4000B09BFECF1D9AA8958150A9F7CC24DD24C4
:107E500088248394B5E0AB2EA1E19A2EF3E0BF2EE7
:107E6000A2D0813461F49FD0082FAFD0023811F036
:107E7000013811F484E001C083E08DD089C08234E0
:107E800011F484E103C0853419F485E0A6D080C0E4
:107E9000853579F488D0E82EFF2485D0082F10E0AE
:107EA000102F00270E291F29000F111F8ED06801E7
:107EB0006FC0863521F484E090D080E0DECF843638
:107EC00009F040C070D06FD0082F6DD080E0C81688
:107ED00080E7D80618F4F601B7BEE895C0E0D1E017
:107EE00062D089930C17E1F7F0E0CF16F0E7DF06D8
:107EF00018F0F601B7BEE89568D007B600FCFDCFD4
:107F0000A601A0E0B1E02C9130E011968C91119780
:107F100090E0982F8827822B932B1296FA010C0160
:107F200087BEE89511244E5F5F4FF1E0A038BF0790
:107F300051F7F601A7BEE89507B600FCFDCF97BE46
:107F4000E89526C08437B1F42ED02DD0F82E2BD052
:107F50003CD0F601EF2C8F010F5F1F4F84911BD097
:107F6000EA94F801C1F70894C11CD11CFA94CF0C13
:107F7000D11C0EC0853739F428D08EE10CD085E9AC
:107F80000AD08FE07ACF813511F488E018D01DD067
:107F900080E101D065CF982F8091C00085FFFCCF94
:107FA0009093C60008958091C00087FFFCCF809118
:107FB000C00084FD01C0A8958091C6000895E0E648
:107FC000F0E098E1908380830895EDDF803219F02E
:107FD00088E0F5DFFFCF84E1DECF1F93182FE3DFCA
:107FE0001150E9F7F2DF1F91089580E0E8DFEE27F6
:047FF000FF270994CA
:027FFE00040479
:00000001FF
